{
  "address": "0xe32b8db0362674bDA5e0eb228BAA5415f590152a",
  "abi": [
    {
      "inputs": [
        {
          "internalType": "address",
          "name": "_vrfCoordinatorV2PlusAddress",
          "type": "address"
        },
        {
          "internalType": "uint256",
          "name": "_subId",
          "type": "uint256"
        },
        {
          "internalType": "bytes32",
          "name": "_gasLane",
          "type": "bytes32"
        },
        {
          "internalType": "uint256",
          "name": "_interval",
          "type": "uint256"
        },
        {
          "internalType": "uint256",
          "name": "_entranceFee",
          "type": "uint256"
        },
        {
          "internalType": "uint32",
          "name": "_callbackGasLimit",
          "type": "uint32"
        },
        {
          "internalType": "uint16",
          "name": "_requestConfirmations",
          "type": "uint16"
        }
      ],
      "stateMutability": "nonpayable",
      "type": "constructor"
    },
    {
      "inputs": [
        {
          "internalType": "address",
          "name": "have",
          "type": "address"
        },
        {
          "internalType": "address",
          "name": "want",
          "type": "address"
        }
      ],
      "name": "OnlyCoordinatorCanFulfill",
      "type": "error"
    },
    {
      "inputs": [
        {
          "internalType": "address",
          "name": "have",
          "type": "address"
        },
        {
          "internalType": "address",
          "name": "owner",
          "type": "address"
        },
        {
          "internalType": "address",
          "name": "coordinator",
          "type": "address"
        }
      ],
      "name": "OnlyOwnerOrCoordinator",
      "type": "error"
    },
    {
      "inputs": [],
      "name": "Raffle__NotOpen",
      "type": "error"
    },
    {
      "inputs": [],
      "name": "Raffle__NotSufficientEntryAmount",
      "type": "error"
    },
    {
      "inputs": [],
      "name": "Raffle__TransferFailed",
      "type": "error"
    },
    {
      "inputs": [],
      "name": "ZeroAddress",
      "type": "error"
    },
    {
      "anonymous": false,
      "inputs": [
        {
          "indexed": false,
          "internalType": "address",
          "name": "vrfCoordinator",
          "type": "address"
        }
      ],
      "name": "CoordinatorSet",
      "type": "event"
    },
    {
      "anonymous": false,
      "inputs": [
        {
          "indexed": true,
          "internalType": "address",
          "name": "from",
          "type": "address"
        },
        {
          "indexed": true,
          "internalType": "address",
          "name": "to",
          "type": "address"
        }
      ],
      "name": "OwnershipTransferRequested",
      "type": "event"
    },
    {
      "anonymous": false,
      "inputs": [
        {
          "indexed": true,
          "internalType": "address",
          "name": "from",
          "type": "address"
        },
        {
          "indexed": true,
          "internalType": "address",
          "name": "to",
          "type": "address"
        }
      ],
      "name": "OwnershipTransferred",
      "type": "event"
    },
    {
      "anonymous": false,
      "inputs": [
        {
          "indexed": true,
          "internalType": "address",
          "name": "player",
          "type": "address"
        }
      ],
      "name": "RaffleEnter",
      "type": "event"
    },
    {
      "anonymous": false,
      "inputs": [
        {
          "indexed": true,
          "internalType": "uint256",
          "name": "requestId",
          "type": "uint256"
        }
      ],
      "name": "RequestRaffleWinner",
      "type": "event"
    },
    {
      "anonymous": false,
      "inputs": [
        {
          "indexed": true,
          "internalType": "address",
          "name": "player",
          "type": "address"
        }
      ],
      "name": "WinnerPicked",
      "type": "event"
    },
    {
      "inputs": [],
      "name": "acceptOwnership",
      "outputs": [],
      "stateMutability": "nonpayable",
      "type": "function"
    },
    {
      "inputs": [
        {
          "internalType": "bytes",
          "name": "",
          "type": "bytes"
        }
      ],
      "name": "checkUpkeep",
      "outputs": [
        {
          "internalType": "bool",
          "name": "upkeepNeeded",
          "type": "bool"
        },
        {
          "internalType": "bytes",
          "name": "",
          "type": "bytes"
        }
      ],
      "stateMutability": "view",
      "type": "function"
    },
    {
      "inputs": [],
      "name": "enterRaffle",
      "outputs": [],
      "stateMutability": "payable",
      "type": "function"
    },
    {
      "inputs": [],
      "name": "getCallBackGasLimit",
      "outputs": [
        {
          "internalType": "uint32",
          "name": "",
          "type": "uint32"
        }
      ],
      "stateMutability": "view",
      "type": "function"
    },
    {
      "inputs": [],
      "name": "getEntranceFee",
      "outputs": [
        {
          "internalType": "uint256",
          "name": "",
          "type": "uint256"
        }
      ],
      "stateMutability": "view",
      "type": "function"
    },
    {
      "inputs": [],
      "name": "getInterval",
      "outputs": [
        {
          "internalType": "uint256",
          "name": "",
          "type": "uint256"
        }
      ],
      "stateMutability": "view",
      "type": "function"
    },
    {
      "inputs": [],
      "name": "getKeyHash",
      "outputs": [
        {
          "internalType": "bytes32",
          "name": "",
          "type": "bytes32"
        }
      ],
      "stateMutability": "view",
      "type": "function"
    },
    {
      "inputs": [],
      "name": "getLastTimeStamp",
      "outputs": [
        {
          "internalType": "uint256",
          "name": "",
          "type": "uint256"
        }
      ],
      "stateMutability": "view",
      "type": "function"
    },
    {
      "inputs": [],
      "name": "getNumberOfWords",
      "outputs": [
        {
          "internalType": "uint32",
          "name": "",
          "type": "uint32"
        }
      ],
      "stateMutability": "pure",
      "type": "function"
    },
    {
      "inputs": [
        {
          "internalType": "uint256",
          "name": "index",
          "type": "uint256"
        }
      ],
      "name": "getPlayer",
      "outputs": [
        {
          "internalType": "address",
          "name": "",
          "type": "address"
        }
      ],
      "stateMutability": "view",
      "type": "function"
    },
    {
      "inputs": [],
      "name": "getRaffleState",
      "outputs": [
        {
          "internalType": "enum Raffle.RaffleState",
          "name": "",
          "type": "uint8"
        }
      ],
      "stateMutability": "view",
      "type": "function"
    },
    {
      "inputs": [],
      "name": "getRecentWinner",
      "outputs": [
        {
          "internalType": "address",
          "name": "",
          "type": "address"
        }
      ],
      "stateMutability": "view",
      "type": "function"
    },
    {
      "inputs": [],
      "name": "getRequestConfirmations",
      "outputs": [
        {
          "internalType": "uint16",
          "name": "",
          "type": "uint16"
        }
      ],
      "stateMutability": "view",
      "type": "function"
    },
    {
      "inputs": [],
      "name": "getSubscriptionId",
      "outputs": [
        {
          "internalType": "uint256",
          "name": "",
          "type": "uint256"
        }
      ],
      "stateMutability": "view",
      "type": "function"
    },
    {
      "inputs": [],
      "name": "owner",
      "outputs": [
        {
          "internalType": "address",
          "name": "",
          "type": "address"
        }
      ],
      "stateMutability": "view",
      "type": "function"
    },
    {
      "inputs": [
        {
          "internalType": "bytes",
          "name": "",
          "type": "bytes"
        }
      ],
      "name": "performUpkeep",
      "outputs": [],
      "stateMutability": "nonpayable",
      "type": "function"
    },
    {
      "inputs": [
        {
          "internalType": "uint256",
          "name": "requestId",
          "type": "uint256"
        },
        {
          "internalType": "uint256[]",
          "name": "randomWords",
          "type": "uint256[]"
        }
      ],
      "name": "rawFulfillRandomWords",
      "outputs": [],
      "stateMutability": "nonpayable",
      "type": "function"
    },
    {
      "inputs": [],
      "name": "s_vrfCoordinator",
      "outputs": [
        {
          "internalType": "contract IVRFCoordinatorV2Plus",
          "name": "",
          "type": "address"
        }
      ],
      "stateMutability": "view",
      "type": "function"
    },
    {
      "inputs": [
        {
          "internalType": "address",
          "name": "_vrfCoordinator",
          "type": "address"
        }
      ],
      "name": "setCoordinator",
      "outputs": [],
      "stateMutability": "nonpayable",
      "type": "function"
    },
    {
      "inputs": [
        {
          "internalType": "address",
          "name": "to",
          "type": "address"
        }
      ],
      "name": "transferOwnership",
      "outputs": [],
      "stateMutability": "nonpayable",
      "type": "function"
    }
  ],
  "transactionHash": "0x53eb51a3bd5b13fab7bfb72b6a9f2308e6677ee75b5b5d13ad86190667352eec",
  "args": [
    "0x9ddfaca8183c41ad55329bdeed9f6a8d53168b1b",
    "42013903199471122103254172120383712035271799959730276041441459433747841728177",
    "0x787d74caea10b2b357790d5b5247c2f63d1d91572a9846f780606e4d953677ae",
    "300",
    "10000000000000000",
    "50000",
    "3"
  ],
  "numDeployments": 1,
  "solcInputHash": "14295799529e1e9c4f5b3da346e1e0f8",
  "bytecode": "0x6101206040526000600760006101000a81548160ff021916908360018111156200002e576200002d620003c9565b5b02179055503480156200004057600080fd5b50604051620026df380380620026df833981810160405281019062000066919062000558565b86338060008073ffffffffffffffffffffffffffffffffffffffff168273ffffffffffffffffffffffffffffffffffffffff1603620000dc576040517f08c379a0000000000000000000000000000000000000000000000000000000008152600401620000d3906200066c565b60405180910390fd5b816000806101000a81548173ffffffffffffffffffffffffffffffffffffffff021916908373ffffffffffffffffffffffffffffffffffffffff160217905550600073ffffffffffffffffffffffffffffffffffffffff168173ffffffffffffffffffffffffffffffffffffffff1614620001635762000162816200029a60201b60201c565b5b505050600073ffffffffffffffffffffffffffffffffffffffff168173ffffffffffffffffffffffffffffffffffffffff1603620001cd576040517fd92e233d00000000000000000000000000000000000000000000000000000000815260040160405180910390fd5b80600260006101000a81548173ffffffffffffffffffffffffffffffffffffffff021916908373ffffffffffffffffffffffffffffffffffffffff160217905550504260048190555083600581905550856006819055508673ffffffffffffffffffffffffffffffffffffffff1660a08173ffffffffffffffffffffffffffffffffffffffff168152505082608081815250508163ffffffff1660e08163ffffffff16815250508460c081815250508061ffff166101008161ffff16815250505050505050505062000700565b3373ffffffffffffffffffffffffffffffffffffffff168173ffffffffffffffffffffffffffffffffffffffff16036200030b576040517f08c379a00000000000000000000000000000000000000000000000000000000081526004016200030290620006de565b60405180910390fd5b80600160006101000a81548173ffffffffffffffffffffffffffffffffffffffff021916908373ffffffffffffffffffffffffffffffffffffffff1602179055508073ffffffffffffffffffffffffffffffffffffffff1660008054906101000a900473ffffffffffffffffffffffffffffffffffffffff1673ffffffffffffffffffffffffffffffffffffffff167fed8889f560326eb138920d842192f0eb3dd22b4f139c87a2c57538e05bae127860405160405180910390a350565b7f4e487b7100000000000000000000000000000000000000000000000000000000600052602160045260246000fd5b600080fd5b600073ffffffffffffffffffffffffffffffffffffffff82169050919050565b60006200042a82620003fd565b9050919050565b6200043c816200041d565b81146200044857600080fd5b50565b6000815190506200045c8162000431565b92915050565b6000819050919050565b620004778162000462565b81146200048357600080fd5b50565b60008151905062000497816200046c565b92915050565b6000819050919050565b620004b2816200049d565b8114620004be57600080fd5b50565b600081519050620004d281620004a7565b92915050565b600063ffffffff82169050919050565b620004f381620004d8565b8114620004ff57600080fd5b50565b6000815190506200051381620004e8565b92915050565b600061ffff82169050919050565b620005328162000519565b81146200053e57600080fd5b50565b600081519050620005528162000527565b92915050565b600080600080600080600060e0888a0312156200057a5762000579620003f8565b5b60006200058a8a828b016200044b565b97505060206200059d8a828b0162000486565b9650506040620005b08a828b01620004c1565b9550506060620005c38a828b0162000486565b9450506080620005d68a828b0162000486565b93505060a0620005e98a828b0162000502565b92505060c0620005fc8a828b0162000541565b91505092959891949750929550565b600082825260208201905092915050565b7f43616e6e6f7420736574206f776e657220746f207a65726f0000000000000000600082015250565b6000620006546018836200060b565b915062000661826200061c565b602082019050919050565b60006020820190508181036000830152620006878162000645565b9050919050565b7f43616e6e6f74207472616e7366657220746f2073656c66000000000000000000600082015250565b6000620006c66017836200060b565b9150620006d3826200068e565b602082019050919050565b60006020820190508181036000830152620006f981620006b7565b9050919050565b60805160a05160c05160e05161010051611f816200075e600039600081816107d2015261091101526000818161070801526107fc0152600081816106e001526107a40152600050506000818161046c015261056f0152611f816000f3fe60806040526004361061011f5760003560e01c80636f9d9c84116100a05780639eccacf6116100645780639eccacf614610381578063c1c244e8146103ac578063de3d9fb7146103d7578063e55ae4e814610402578063f2fde38b1461043f5761011f565b80636f9d9c84146102c057806379ba5097146102eb5780638da5cb5b146103025780638ea981171461032d57806391ad27b4146103565761011f565b80633cdb9361116100e75780633cdb9361146101d85780634585e33b14610203578063473f1ddc1461022c5780635f1b0fd8146102575780636e04ff0d146102825761011f565b806309bc33a714610124578063115cbaf51461014f5780631fe543e31461017a5780632cfcc539146101a3578063331bf125146101ad575b600080fd5b34801561013057600080fd5b50610139610468565b60405161014691906114b9565b60405180910390f35b34801561015b57600080fd5b50610164610490565b604051610171919061154b565b60405180910390f35b34801561018657600080fd5b506101a1600480360381019061019c9190611601565b6104a7565b005b6101ab61056d565b005b3480156101b957600080fd5b506101c26106dc565b6040516101cf919061167a565b60405180910390f35b3480156101e457600080fd5b506101ed610704565b6040516101fa91906116b4565b60405180910390f35b34801561020f57600080fd5b5061022a60048036038101906102259190611725565b61072c565b005b34801561023857600080fd5b506102416108e3565b60405161024e91906117b3565b60405180910390f35b34801561026357600080fd5b5061026c61090d565b60405161027991906117eb565b60405180910390f35b34801561028e57600080fd5b506102a960048036038101906102a49190611725565b610935565b6040516102b79291906118b1565b60405180910390f35b3480156102cc57600080fd5b506102d56109c5565b6040516102e291906116b4565b60405180910390f35b3480156102f757600080fd5b506103006109ce565b005b34801561030e57600080fd5b50610317610b63565b60405161032491906117b3565b60405180910390f35b34801561033957600080fd5b50610354600480360381019061034f919061190d565b610b8c565b005b34801561036257600080fd5b5061036b610d6d565b60405161037891906114b9565b60405180910390f35b34801561038d57600080fd5b50610396610d77565b6040516103a39190611999565b60405180910390f35b3480156103b857600080fd5b506103c1610d9d565b6040516103ce91906114b9565b60405180910390f35b3480156103e357600080fd5b506103ec610da7565b6040516103f991906114b9565b60405180910390f35b34801561040e57600080fd5b50610429600480360381019061042491906119b4565b610db1565b60405161043691906117b3565b60405180910390f35b34801561044b57600080fd5b506104666004803603810190610461919061190d565b610df9565b005b60007f0000000000000000000000000000000000000000000000000000000000000000905090565b6000600760009054906101000a900460ff16905090565b600260009054906101000a900473ffffffffffffffffffffffffffffffffffffffff1673ffffffffffffffffffffffffffffffffffffffff163373ffffffffffffffffffffffffffffffffffffffff161461055d5733600260009054906101000a900473ffffffffffffffffffffffffffffffffffffffff166040517f1cf993f40000000000000000000000000000000000000000000000000000000081526004016105549291906119e1565b60405180910390fd5b610568838383610e0d565b505050565b7f00000000000000000000000000000000000000000000000000000000000000003410156105c7576040517fd531748800000000000000000000000000000000000000000000000000000000815260040160405180910390fd5b600060018111156105db576105da6114d4565b5b600760009054906101000a900460ff1660018111156105fd576105fc6114d4565b5b14610634576040517f1425571c00000000000000000000000000000000000000000000000000000000815260040160405180910390fd5b6003339080600181540180825580915050600190039060005260206000200160009091909190916101000a81548173ffffffffffffffffffffffffffffffffffffffff021916908373ffffffffffffffffffffffffffffffffffffffff1602179055503373ffffffffffffffffffffffffffffffffffffffff167f0805e1d667bddb8a95f0f09880cf94f403fb596ce79928d9f29b74203ba284d460405160405180910390a2565b60007f0000000000000000000000000000000000000000000000000000000000000000905090565b60007f0000000000000000000000000000000000000000000000000000000000000000905090565b6001600760006101000a81548160ff02191690836001811115610752576107516114d4565b5b02179055506000600260009054906101000a900473ffffffffffffffffffffffffffffffffffffffff1673ffffffffffffffffffffffffffffffffffffffff16639b1c385e6040518060c001604052807f0000000000000000000000000000000000000000000000000000000000000000815260200160065481526020017f000000000000000000000000000000000000000000000000000000000000000061ffff1681526020017f000000000000000000000000000000000000000000000000000000000000000063ffffffff168152602001600163ffffffff16815260200161084d6040518060200160405280600015158152506110bc565b8152506040518263ffffffff1660e01b815260040161086c9190611b19565b6020604051808303816000875af115801561088b573d6000803e3d6000fd5b505050506040513d601f19601f820116820180604052508101906108af9190611b50565b9050807fde6349b018d6c03d837b67d9a198a6ba4842546f2295fe963fae141e5dbaef8160405160405180910390a2505050565b6000600760019054906101000a900473ffffffffffffffffffffffffffffffffffffffff16905090565b60007f0000000000000000000000000000000000000000000000000000000000000000905090565b6000606060006005546004544261094c9190611bac565b11905060008060038054905011905060008060018111156109705761096f6114d4565b5b600760009054906101000a900460ff166001811115610992576109916114d4565b5b149050600080471190508380156109a65750825b80156109af5750815b80156109b85750805b9550505050509250929050565b60006001905090565b600160009054906101000a900473ffffffffffffffffffffffffffffffffffffffff1673ffffffffffffffffffffffffffffffffffffffff163373ffffffffffffffffffffffffffffffffffffffff1614610a5e576040517f08c379a0000000000000000000000000000000000000000000000000000000008152600401610a5590611c3d565b60405180910390fd5b60008060009054906101000a900473ffffffffffffffffffffffffffffffffffffffff169050336000806101000a81548173ffffffffffffffffffffffffffffffffffffffff021916908373ffffffffffffffffffffffffffffffffffffffff1602179055506000600160006101000a81548173ffffffffffffffffffffffffffffffffffffffff021916908373ffffffffffffffffffffffffffffffffffffffff1602179055503373ffffffffffffffffffffffffffffffffffffffff168173ffffffffffffffffffffffffffffffffffffffff167f8be0079c531659141344cd1fd0a4f28419497f9722a3daafe3b4186f6b6457e060405160405180910390a350565b60008060009054906101000a900473ffffffffffffffffffffffffffffffffffffffff16905090565b610b94610b63565b73ffffffffffffffffffffffffffffffffffffffff163373ffffffffffffffffffffffffffffffffffffffff1614158015610c1d5750600260009054906101000a900473ffffffffffffffffffffffffffffffffffffffff1673ffffffffffffffffffffffffffffffffffffffff163373ffffffffffffffffffffffffffffffffffffffff1614155b15610c8c5733610c2b610b63565b600260009054906101000a900473ffffffffffffffffffffffffffffffffffffffff166040517f061db9c1000000000000000000000000000000000000000000000000000000008152600401610c8393929190611c5d565b60405180910390fd5b600073ffffffffffffffffffffffffffffffffffffffff168173ffffffffffffffffffffffffffffffffffffffff1603610cf2576040517fd92e233d00000000000000000000000000000000000000000000000000000000815260040160405180910390fd5b80600260006101000a81548173ffffffffffffffffffffffffffffffffffffffff021916908373ffffffffffffffffffffffffffffffffffffffff1602179055507fd1a6a14209a385a964d036e404cb5cfb71f4000cdb03c9366292430787261be681604051610d6291906117b3565b60405180910390a150565b6000600554905090565b600260009054906101000a900473ffffffffffffffffffffffffffffffffffffffff1681565b6000600454905090565b6000600654905090565b600060038281548110610dc757610dc6611c94565b5b9060005260206000200160009054906101000a900473ffffffffffffffffffffffffffffffffffffffff169050919050565b610e01611154565b610e0a816111e4565b50565b600060038054905083836000818110610e2957610e28611c94565b5b90506020020135610e3a9190611cf2565b905060038181548110610e5057610e4f611c94565b5b9060005260206000200160009054906101000a900473ffffffffffffffffffffffffffffffffffffffff16600760016101000a81548173ffffffffffffffffffffffffffffffffffffffff021916908373ffffffffffffffffffffffffffffffffffffffff16021790555042600481905550600067ffffffffffffffff811115610edd57610edc611d23565b5b604051908082528060200260200182016040528015610f0b5781602001602082028036833780820191505090505b5060039080519060200190610f219291906113ef565b506000600760006101000a81548160ff02191690836001811115610f4857610f476114d4565b5b02179055506000600760019054906101000a900473ffffffffffffffffffffffffffffffffffffffff1673ffffffffffffffffffffffffffffffffffffffff1647604051610f9590611d83565b60006040518083038185875af1925050503d8060008114610fd2576040519150601f19603f3d011682016040523d82523d6000602084013e610fd7565b606091505b5050905080611012576040517fa1d04b3900000000000000000000000000000000000000000000000000000000815260040160405180910390fd5b6110506040518060400160405280601b81526020017f4576656e7420696e7369646520636f6e74726163742066697265640000000000815250611310565b600760019054906101000a900473ffffffffffffffffffffffffffffffffffffffff1673ffffffffffffffffffffffffffffffffffffffff167f5b690ec4a06fe979403046eaeea5b3ce38524683c3001f662c8b5a829632f7df60405160405180910390a25050505050565b60607f92fd13387c7fe7befbc38d303d6468778fb9731bc4583f17d92989c6fcfdeaaa826040516024016110f09190611dc3565b604051602081830303815290604052907bffffffffffffffffffffffffffffffffffffffffffffffffffffffff19166020820180517bffffffffffffffffffffffffffffffffffffffffffffffffffffffff83818316178352505050509050919050565b60008054906101000a900473ffffffffffffffffffffffffffffffffffffffff1673ffffffffffffffffffffffffffffffffffffffff163373ffffffffffffffffffffffffffffffffffffffff16146111e2576040517f08c379a00000000000000000000000000000000000000000000000000000000081526004016111d990611e2a565b60405180910390fd5b565b3373ffffffffffffffffffffffffffffffffffffffff168173ffffffffffffffffffffffffffffffffffffffff1603611252576040517f08c379a000000000000000000000000000000000000000000000000000000000815260040161124990611e96565b60405180910390fd5b80600160006101000a81548173ffffffffffffffffffffffffffffffffffffffff021916908373ffffffffffffffffffffffffffffffffffffffff1602179055508073ffffffffffffffffffffffffffffffffffffffff1660008054906101000a900473ffffffffffffffffffffffffffffffffffffffff1673ffffffffffffffffffffffffffffffffffffffff167fed8889f560326eb138920d842192f0eb3dd22b4f139c87a2c57538e05bae127860405160405180910390a350565b6113a6816040516024016113249190611efa565b6040516020818303038152906040527f41304fac000000000000000000000000000000000000000000000000000000007bffffffffffffffffffffffffffffffffffffffffffffffffffffffff19166020820180517bffffffffffffffffffffffffffffffffffffffffffffffffffffffff83818316178352505050506113a9565b50565b6113c0816113b86113c36113e4565b63ffffffff16565b50565b60006a636f6e736f6c652e6c6f679050600080835160208501845afa505050565b611479819050919050565b828054828255906000526020600020908101928215611468579160200282015b828111156114675782518260006101000a81548173ffffffffffffffffffffffffffffffffffffffff021916908373ffffffffffffffffffffffffffffffffffffffff1602179055509160200191906001019061140f565b5b5090506114759190611483565b5090565b611481611f1c565b565b5b8082111561149c576000816000905550600101611484565b5090565b6000819050919050565b6114b3816114a0565b82525050565b60006020820190506114ce60008301846114aa565b92915050565b7f4e487b7100000000000000000000000000000000000000000000000000000000600052602160045260246000fd5b60028110611514576115136114d4565b5b50565b600081905061152582611503565b919050565b600061153582611517565b9050919050565b6115458161152a565b82525050565b6000602082019050611560600083018461153c565b92915050565b600080fd5b600080fd5b611579816114a0565b811461158457600080fd5b50565b60008135905061159681611570565b92915050565b600080fd5b600080fd5b600080fd5b60008083601f8401126115c1576115c061159c565b5b8235905067ffffffffffffffff8111156115de576115dd6115a1565b5b6020830191508360208202830111156115fa576115f96115a6565b5b9250929050565b60008060006040848603121561161a57611619611566565b5b600061162886828701611587565b935050602084013567ffffffffffffffff8111156116495761164861156b565b5b611655868287016115ab565b92509250509250925092565b6000819050919050565b61167481611661565b82525050565b600060208201905061168f600083018461166b565b92915050565b600063ffffffff82169050919050565b6116ae81611695565b82525050565b60006020820190506116c960008301846116a5565b92915050565b60008083601f8401126116e5576116e461159c565b5b8235905067ffffffffffffffff811115611702576117016115a1565b5b60208301915083600182028301111561171e5761171d6115a6565b5b9250929050565b6000806020838503121561173c5761173b611566565b5b600083013567ffffffffffffffff81111561175a5761175961156b565b5b611766858286016116cf565b92509250509250929050565b600073ffffffffffffffffffffffffffffffffffffffff82169050919050565b600061179d82611772565b9050919050565b6117ad81611792565b82525050565b60006020820190506117c860008301846117a4565b92915050565b600061ffff82169050919050565b6117e5816117ce565b82525050565b600060208201905061180060008301846117dc565b92915050565b60008115159050919050565b61181b81611806565b82525050565b600081519050919050565b600082825260208201905092915050565b60005b8381101561185b578082015181840152602081019050611840565b60008484015250505050565b6000601f19601f8301169050919050565b600061188382611821565b61188d818561182c565b935061189d81856020860161183d565b6118a681611867565b840191505092915050565b60006040820190506118c66000830185611812565b81810360208301526118d88184611878565b90509392505050565b6118ea81611792565b81146118f557600080fd5b50565b600081359050611907816118e1565b92915050565b60006020828403121561192357611922611566565b5b6000611931848285016118f8565b91505092915050565b6000819050919050565b600061195f61195a61195584611772565b61193a565b611772565b9050919050565b600061197182611944565b9050919050565b600061198382611966565b9050919050565b61199381611978565b82525050565b60006020820190506119ae600083018461198a565b92915050565b6000602082840312156119ca576119c9611566565b5b60006119d884828501611587565b91505092915050565b60006040820190506119f660008301856117a4565b611a0360208301846117a4565b9392505050565b611a1381611661565b82525050565b611a22816114a0565b82525050565b611a31816117ce565b82525050565b611a4081611695565b82525050565b600082825260208201905092915050565b6000611a6282611821565b611a6c8185611a46565b9350611a7c81856020860161183d565b611a8581611867565b840191505092915050565b600060c083016000830151611aa86000860182611a0a565b506020830151611abb6020860182611a19565b506040830151611ace6040860182611a28565b506060830151611ae16060860182611a37565b506080830151611af46080860182611a37565b5060a083015184820360a0860152611b0c8282611a57565b9150508091505092915050565b60006020820190508181036000830152611b338184611a90565b905092915050565b600081519050611b4a81611570565b92915050565b600060208284031215611b6657611b65611566565b5b6000611b7484828501611b3b565b91505092915050565b7f4e487b7100000000000000000000000000000000000000000000000000000000600052601160045260246000fd5b6000611bb7826114a0565b9150611bc2836114a0565b9250828203905081811115611bda57611bd9611b7d565b5b92915050565b600082825260208201905092915050565b7f4d7573742062652070726f706f736564206f776e657200000000000000000000600082015250565b6000611c27601683611be0565b9150611c3282611bf1565b602082019050919050565b60006020820190508181036000830152611c5681611c1a565b9050919050565b6000606082019050611c7260008301866117a4565b611c7f60208301856117a4565b611c8c60408301846117a4565b949350505050565b7f4e487b7100000000000000000000000000000000000000000000000000000000600052603260045260246000fd5b7f4e487b7100000000000000000000000000000000000000000000000000000000600052601260045260246000fd5b6000611cfd826114a0565b9150611d08836114a0565b925082611d1857611d17611cc3565b5b828206905092915050565b7f4e487b7100000000000000000000000000000000000000000000000000000000600052604160045260246000fd5b600081905092915050565b50565b6000611d6d600083611d52565b9150611d7882611d5d565b600082019050919050565b6000611d8e82611d60565b9150819050919050565b611da181611806565b82525050565b602082016000820151611dbd6000850182611d98565b50505050565b6000602082019050611dd86000830184611da7565b92915050565b7f4f6e6c792063616c6c61626c65206279206f776e657200000000000000000000600082015250565b6000611e14601683611be0565b9150611e1f82611dde565b602082019050919050565b60006020820190508181036000830152611e4381611e07565b9050919050565b7f43616e6e6f74207472616e7366657220746f2073656c66000000000000000000600082015250565b6000611e80601783611be0565b9150611e8b82611e4a565b602082019050919050565b60006020820190508181036000830152611eaf81611e73565b9050919050565b600081519050919050565b6000611ecc82611eb6565b611ed68185611be0565b9350611ee681856020860161183d565b611eef81611867565b840191505092915050565b60006020820190508181036000830152611f148184611ec1565b905092915050565b7f4e487b7100000000000000000000000000000000000000000000000000000000600052605160045260246000fdfea26469706673582212205e65fe26187f8eab4076c4823fdf53c7e3e8b696e691c2de2bdcda12d456a29b64736f6c63430008130033",
  "devdoc": {
    "author": "Aniket Jejurkar",
    "details": "This contract uses latest version of VRF Coordinator and Chainlink keepers ",
    "kind": "dev",
    "methods": {},
    "version": 1
  },
  "userdoc": {
    "kind": "user",
    "methods": {
      "acceptOwnership()": {
        "notice": "Allows an ownership transfer to be completed by the recipient."
      },
      "owner()": {
        "notice": "Get the current owner"
      },
      "setCoordinator(address)": {
        "notice": "Sets the VRF Coordinator addressThis method should only be callable by the coordinator or contract owner"
      },
      "transferOwnership(address)": {
        "notice": "Allows an owner to begin transferring ownership to a new address."
      }
    },
    "notice": "This is a raffle contract",
    "version": 1
  },
  "storageLayout": {
    "storage": [
      {
        "astId": 97,
        "contract": "contracts/Raffle.sol:Raffle",
        "label": "s_owner",
        "offset": 0,
        "slot": "0",
        "type": "t_address"
      },
      {
        "astId": 99,
        "contract": "contracts/Raffle.sol:Raffle",
        "label": "s_pendingOwner",
        "offset": 0,
        "slot": "1",
        "type": "t_address"
      },
      {
        "astId": 2380,
        "contract": "contracts/Raffle.sol:Raffle",
        "label": "s_vrfCoordinator",
        "offset": 0,
        "slot": "2",
        "type": "t_contract(IVRFCoordinatorV2Plus)2529"
      },
      {
        "astId": 3528,
        "contract": "contracts/Raffle.sol:Raffle",
        "label": "s_players",
        "offset": 0,
        "slot": "3",
        "type": "t_array(t_address_payable)dyn_storage"
      },
      {
        "astId": 3532,
        "contract": "contracts/Raffle.sol:Raffle",
        "label": "s_lastTimeStamp",
        "offset": 0,
        "slot": "4",
        "type": "t_uint256"
      },
      {
        "astId": 3534,
        "contract": "contracts/Raffle.sol:Raffle",
        "label": "s_interval",
        "offset": 0,
        "slot": "5",
        "type": "t_uint256"
      },
      {
        "astId": 3536,
        "contract": "contracts/Raffle.sol:Raffle",
        "label": "s_subId",
        "offset": 0,
        "slot": "6",
        "type": "t_uint256"
      },
      {
        "astId": 3541,
        "contract": "contracts/Raffle.sol:Raffle",
        "label": "s_raffleState",
        "offset": 0,
        "slot": "7",
        "type": "t_enum(RaffleState)3525"
      },
      {
        "astId": 3554,
        "contract": "contracts/Raffle.sol:Raffle",
        "label": "s_recentWinner",
        "offset": 1,
        "slot": "7",
        "type": "t_address_payable"
      }
    ],
    "types": {
      "t_address": {
        "encoding": "inplace",
        "label": "address",
        "numberOfBytes": "20"
      },
      "t_address_payable": {
        "encoding": "inplace",
        "label": "address payable",
        "numberOfBytes": "20"
      },
      "t_array(t_address_payable)dyn_storage": {
        "base": "t_address_payable",
        "encoding": "dynamic_array",
        "label": "address payable[]",
        "numberOfBytes": "32"
      },
      "t_contract(IVRFCoordinatorV2Plus)2529": {
        "encoding": "inplace",
        "label": "contract IVRFCoordinatorV2Plus",
        "numberOfBytes": "20"
      },
      "t_enum(RaffleState)3525": {
        "encoding": "inplace",
        "label": "enum Raffle.RaffleState",
        "numberOfBytes": "1"
      },
      "t_uint256": {
        "encoding": "inplace",
        "label": "uint256",
        "numberOfBytes": "32"
      }
    }
  }
}